:040000004EEF08F0C7
:1010000000000A0E0724076E000E0820086E08BEB6
:1010100013EF08F0F50E075C010E0858D8A013EF87
:1010200008F015EF08F02BEF08F009500A10D8B4BB
:101030001CEF08F01FEF08F0010E20EF08F0000E83
:10104000096E0A6A09C00CF0050E57EC08F0000E94
:10105000086E000E076E5DEC08F0120060EC08F000
:1010600066EC08F043EC08F001EC08F01A0E0D6E87
:10107000F80EE82EFED70D2EFCD700F000F034EF6E
:1010800008F000EF00F0000E066E000E056E000E78
:10109000046E000E036E000E0B6E120000EE01F0E7
:1010A0000B0EEE6AE806FDE100012EEF08F00CB031
:1010B00002D08C9A01D08C8A1200054A062A1200AE
:1010C00063EC08F01200959A8C9A1200D1801200FD
:020000040030CA
:04000000FF021F1FBD
:00000001FF
