:04000000BFEF08F056
:1010000000000B4A0C2A014A022A02BE11EF08F026
:10101000025009E1020E015CD8A011EF08F013EFB5
:1010200008F051EF08F0000E026E000E016E034A48
:10103000042A04BE25EF08F0045009E1050E035C04
:10104000D8A025EF08F027EF08F051EF08F0000EC8
:10105000046E000E036E06BE37EF08F0065009E17D
:10106000080E055CD8A037EF08F039EF08F04BEF19
:1010700008F006BE47EF08F0065007E10D0E055CCC
:10108000D8B045EF08F047EF08F04BEF08F0000E3E
:10109000116E4DEF08F0010E116E000E066E000E7F
:1010A000056E12000A0E0D240D6E000E0E200E6E3F
:1010B0000EBE64EF08F0F50E0D5C010E0E58D8A0C0
:1010C00064EF08F066EF08F07CEF08F00F501010A6
:1010D000D8B46DEF08F070EF08F0010E71EF08F072
:1010E000000E0F6E106A0FC012F0050EC8EC08F06B
:1010F000000E0E6E000E0D6E1200094A0A2AD7EC81
:1011000008F00009D8A487EF08F089EF08F099EFFC
:1011100008F009500B1807E10A500C18D8A493EFF7
:1011200008F095EF08F099EF08F08C9804009AEF1A
:1011300008F08C881200D1EC08F0CEEC08F0B4EC8A
:1011400008F052EC08F001EC08F07DEC08F01A0E03
:10115000136EF80EE82EFED7132EFCD700F000F029
:10116000A1EF08F000EF00F0000E066E000E056E15
:10117000000E046E000E036E000E116E120000EEE3
:1011800001F0110EEE6AE806FDE100019BEF08F0A8
:1011900012B002D08C9A01D08C8A1200D18095981E
:1011A0001200D4EC08F01200959A8C9A120011509B
:0211B00012002B
:020000040030CA
:04000000FF021F1FBD
:00000001FF
