:04000000D8EF08F03D
:1010000000000B4A0C2A014A022A02BE11EF08F026
:10101000025009E1020E015CD8A011EF08F013EFB5
:1010200008F051EF08F0000E026E000E016E034A48
:10103000042A04BE25EF08F0045009E1050E035C04
:10104000D8A025EF08F027EF08F051EF08F0000EC8
:10105000046E000E036E06BE37EF08F0065009E17D
:10106000080E055CD8A037EF08F039EF08F04BEF19
:1010700008F006BE47EF08F0065007E10D0E055CCC
:10108000D8B045EF08F047EF08F04BEF08F0000E3E
:10109000116E4DEF08F0010E116E000E066E000E7F
:1010A000056E120095928C82020E146E040E136E61
:1010B000BA0EE82EFED7132EFCD7142EFAD700F066
:1010C00000F08C92020E146E040E136EBA0EE82E0F
:1010D000FED7132EFCD7142EFAD700F000F0E7EC61
:1010E00008F0EFEC08F0CDEC08F088EC08F001EC2B
:1010F00008F0B3EC08F01A0E136EF80EE82EFED7C7
:10110000132EFCD700F000F075EF08F000EF00F0B0
:101110000A0E0D240D6E000E0E200E6E0EBE9AEFFE
:1011200008F0F50E0D5C010E0E58D8A09AEF08F0ED
:101130009CEF08F0B2EF08F00F501010D8B4A3EFF6
:1011400008F0A6EF08F0010EA7EF08F0000E0F6EF2
:10115000106A0FC012F0050EE1EC08F0000E0E6EE2
:10116000000E0D6E1200094A0A2AEDEC08F0000983
:10117000D8A4BDEF08F0BFEF08F0CCEF08F009509D
:101180000B1807E10A500C18D8A4C9EF08F0CBEFF0
:1011900008F0CCEF08F004001200000E066E000EFE
:1011A000056E000E046E000E036E000E116E12002E
:1011B00000EE01F0110EEE6AE806FDE1000152EFCB
:1011C00008F012B002D08C9A01D08C8A1200EAEC9E
:1011D00008F01200959A8C9A120011501200D180DA
:0211E0001200FB
:020000040030CA
:04000000FF021F0FCD
:00000001FF
